{
  "_format": "hh-sol-artifact-1",
  "contractName": "ERC721MetadataWithBaseUri",
  "sourceName": "contracts/rapm-contracts/token/ERC721/ERC721MetadataWithBaseUri.sol",
  "abi": [
    {
      "constant": true,
      "inputs": [
        {
          "name": "interfaceId",
          "type": "bytes4"
        }
      ],
      "name": "supportsInterface",
      "outputs": [
        {
          "name": "",
          "type": "bool"
        }
      ],
      "payable": false,
      "stateMutability": "view",
      "type": "function"
    },
    {
      "constant": true,
      "inputs": [],
      "name": "name",
      "outputs": [
        {
          "name": "",
          "type": "string"
        }
      ],
      "payable": false,
      "stateMutability": "view",
      "type": "function"
    },
    {
      "constant": true,
      "inputs": [
        {
          "name": "tokenId",
          "type": "uint256"
        }
      ],
      "name": "getApproved",
      "outputs": [
        {
          "name": "",
          "type": "address"
        }
      ],
      "payable": false,
      "stateMutability": "view",
      "type": "function"
    },
    {
      "constant": false,
      "inputs": [
        {
          "name": "to",
          "type": "address"
        },
        {
          "name": "tokenId",
          "type": "uint256"
        }
      ],
      "name": "approve",
      "outputs": [],
      "payable": false,
      "stateMutability": "nonpayable",
      "type": "function"
    },
    {
      "constant": false,
      "inputs": [
        {
          "name": "from",
          "type": "address"
        },
        {
          "name": "to",
          "type": "address"
        },
        {
          "name": "tokenId",
          "type": "uint256"
        }
      ],
      "name": "transferFrom",
      "outputs": [],
      "payable": false,
      "stateMutability": "nonpayable",
      "type": "function"
    },
    {
      "constant": false,
      "inputs": [
        {
          "name": "from",
          "type": "address"
        },
        {
          "name": "to",
          "type": "address"
        },
        {
          "name": "tokenId",
          "type": "uint256"
        }
      ],
      "name": "safeTransferFrom",
      "outputs": [],
      "payable": false,
      "stateMutability": "nonpayable",
      "type": "function"
    },
    {
      "constant": true,
      "inputs": [
        {
          "name": "tokenId",
          "type": "uint256"
        }
      ],
      "name": "ownerOf",
      "outputs": [
        {
          "name": "",
          "type": "address"
        }
      ],
      "payable": false,
      "stateMutability": "view",
      "type": "function"
    },
    {
      "constant": true,
      "inputs": [],
      "name": "baseURI",
      "outputs": [
        {
          "name": "",
          "type": "string"
        }
      ],
      "payable": false,
      "stateMutability": "view",
      "type": "function"
    },
    {
      "constant": true,
      "inputs": [
        {
          "name": "owner",
          "type": "address"
        }
      ],
      "name": "balanceOf",
      "outputs": [
        {
          "name": "",
          "type": "uint256"
        }
      ],
      "payable": false,
      "stateMutability": "view",
      "type": "function"
    },
    {
      "constant": true,
      "inputs": [],
      "name": "symbol",
      "outputs": [
        {
          "name": "",
          "type": "string"
        }
      ],
      "payable": false,
      "stateMutability": "view",
      "type": "function"
    },
    {
      "constant": false,
      "inputs": [
        {
          "name": "to",
          "type": "address"
        },
        {
          "name": "approved",
          "type": "bool"
        }
      ],
      "name": "setApprovalForAll",
      "outputs": [],
      "payable": false,
      "stateMutability": "nonpayable",
      "type": "function"
    },
    {
      "constant": false,
      "inputs": [
        {
          "name": "from",
          "type": "address"
        },
        {
          "name": "to",
          "type": "address"
        },
        {
          "name": "tokenId",
          "type": "uint256"
        },
        {
          "name": "_data",
          "type": "bytes"
        }
      ],
      "name": "safeTransferFrom",
      "outputs": [],
      "payable": false,
      "stateMutability": "nonpayable",
      "type": "function"
    },
    {
      "constant": true,
      "inputs": [
        {
          "name": "tokenId",
          "type": "uint256"
        }
      ],
      "name": "tokenURI",
      "outputs": [
        {
          "name": "",
          "type": "string"
        }
      ],
      "payable": false,
      "stateMutability": "view",
      "type": "function"
    },
    {
      "constant": true,
      "inputs": [
        {
          "name": "owner",
          "type": "address"
        },
        {
          "name": "operator",
          "type": "address"
        }
      ],
      "name": "isApprovedForAll",
      "outputs": [
        {
          "name": "",
          "type": "bool"
        }
      ],
      "payable": false,
      "stateMutability": "view",
      "type": "function"
    },
    {
      "inputs": [
        {
          "name": "name",
          "type": "string"
        },
        {
          "name": "symbol",
          "type": "string"
        }
      ],
      "payable": false,
      "stateMutability": "nonpayable",
      "type": "constructor"
    },
    {
      "anonymous": false,
      "inputs": [
        {
          "indexed": true,
          "name": "from",
          "type": "address"
        },
        {
          "indexed": true,
          "name": "to",
          "type": "address"
        },
        {
          "indexed": true,
          "name": "tokenId",
          "type": "uint256"
        }
      ],
      "name": "Transfer",
      "type": "event"
    },
    {
      "anonymous": false,
      "inputs": [
        {
          "indexed": true,
          "name": "owner",
          "type": "address"
        },
        {
          "indexed": true,
          "name": "approved",
          "type": "address"
        },
        {
          "indexed": true,
          "name": "tokenId",
          "type": "uint256"
        }
      ],
      "name": "Approval",
      "type": "event"
    },
    {
      "anonymous": false,
      "inputs": [
        {
          "indexed": true,
          "name": "owner",
          "type": "address"
        },
        {
          "indexed": true,
          "name": "operator",
          "type": "address"
        },
        {
          "indexed": false,
          "name": "approved",
          "type": "bool"
        }
      ],
      "name": "ApprovalForAll",
      "type": "event"
    }
  ],
  "bytecode": "0x60806040523480156200001157600080fd5b506040516200208238038062002082833981018060405260408110156200003757600080fd5b8101908080516401000000008111156200005057600080fd5b828101905060208101848111156200006757600080fd5b81518560018202830111640100000000821117156200008557600080fd5b50509291906020018051640100000000811115620000a257600080fd5b82810190506020810184811115620000b957600080fd5b8151856001820283011164010000000082111715620000d757600080fd5b5050929190505050620000f76301ffc9a760e01b6200018960201b60201c565b6200010f6380ac58cd60e01b6200018960201b60201c565b81600590805190602001906200012792919062000292565b5080600690805190602001906200014092919062000292565b5062000159635b5e139f60e01b6200018960201b60201c565b60405180602001604052806000815250600790805190602001906200018092919062000292565b50505062000341565b63ffffffff60e01b817bffffffffffffffffffffffffffffffffffffffffffffffffffffffff1916141562000226576040517f08c379a000000000000000000000000000000000000000000000000000000000815260040180806020018281038252601c8152602001807f4552433136353a20696e76616c696420696e746572666163652069640000000081525060200191505060405180910390fd5b6001600080837bffffffffffffffffffffffffffffffffffffffffffffffffffffffff19167bffffffffffffffffffffffffffffffffffffffffffffffffffffffff1916815260200190815260200160002060006101000a81548160ff02191690831515021790555050565b828054600181600116156101000203166002900490600052602060002090601f016020900481019282601f10620002d557805160ff191683800117855562000306565b8280016001018555821562000306579182015b8281111562000305578251825591602001919060010190620002e8565b5b50905062000315919062000319565b5090565b6200033e91905b808211156200033a57600081600090555060010162000320565b5090565b90565b611d3180620003516000396000f3fe608060405234801561001057600080fd5b50600436106100ea5760003560e01c80636c0360eb1161008c578063a22cb46511610066578063a22cb4651461053b578063b88d4fde1461058b578063c87b56dd14610690578063e985e9c514610737576100ea565b80636c0360eb146103dd57806370a082311461046057806395d89b41146104b8576100ea565b8063095ea7b3116100c8578063095ea7b31461024557806323b872dd1461029357806342842e0e146103015780636352211e1461036f576100ea565b806301ffc9a7146100ef57806306fdde0314610154578063081812fc146101d7575b600080fd5b61013a6004803603602081101561010557600080fd5b8101908080357bffffffffffffffffffffffffffffffffffffffffffffffffffffffff191690602001909291905050506107b3565b604051808215151515815260200191505060405180910390f35b61015c61081a565b6040518080602001828103825283818151815260200191508051906020019080838360005b8381101561019c578082015181840152602081019050610181565b50505050905090810190601f1680156101c95780820380516001836020036101000a031916815260200191505b509250505060405180910390f35b610203600480360360208110156101ed57600080fd5b81019080803590602001909291905050506108bc565b604051808273ffffffffffffffffffffffffffffffffffffffff1673ffffffffffffffffffffffffffffffffffffffff16815260200191505060405180910390f35b6102916004803603604081101561025b57600080fd5b81019080803573ffffffffffffffffffffffffffffffffffffffff16906020019092919080359060200190929190505050610957565b005b6102ff600480360360608110156102a957600080fd5b81019080803573ffffffffffffffffffffffffffffffffffffffff169060200190929190803573ffffffffffffffffffffffffffffffffffffffff16906020019092919080359060200190929190505050610b30565b005b61036d6004803603606081101561031757600080fd5b81019080803573ffffffffffffffffffffffffffffffffffffffff169060200190929190803573ffffffffffffffffffffffffffffffffffffffff16906020019092919080359060200190929190505050610b9f565b005b61039b6004803603602081101561038557600080fd5b8101908080359060200190929190505050610bbf565b604051808273ffffffffffffffffffffffffffffffffffffffff1673ffffffffffffffffffffffffffffffffffffffff16815260200191505060405180910390f35b6103e5610c87565b6040518080602001828103825283818151815260200191508051906020019080838360005b8381101561042557808201518184015260208101905061040a565b50505050905090810190601f1680156104525780820380516001836020036101000a031916815260200191505b509250505060405180910390f35b6104a26004803603602081101561047657600080fd5b81019080803573ffffffffffffffffffffffffffffffffffffffff169060200190929190505050610d29565b6040518082815260200191505060405180910390f35b6104c0610dfe565b6040518080602001828103825283818151815260200191508051906020019080838360005b838110156105005780820151818401526020810190506104e5565b50505050905090810190601f16801561052d5780820380516001836020036101000a031916815260200191505b509250505060405180910390f35b6105896004803603604081101561055157600080fd5b81019080803573ffffffffffffffffffffffffffffffffffffffff169060200190929190803515159060200190929190505050610ea0565b005b61068e600480360360808110156105a157600080fd5b81019080803573ffffffffffffffffffffffffffffffffffffffff169060200190929190803573ffffffffffffffffffffffffffffffffffffffff169060200190929190803590602001909291908035906020019064010000000081111561060857600080fd5b82018360208201111561061a57600080fd5b8035906020019184600183028401116401000000008311171561063c57600080fd5b91908080601f016020809104026020016040519081016040528093929190818152602001838380828437600081840152601f19601f820116905080830192505050505050509192919290505050611043565b005b6106bc600480360360208110156106a657600080fd5b81019080803590602001909291905050506110b5565b6040518080602001828103825283818151815260200191508051906020019080838360005b838110156106fc5780820151818401526020810190506106e1565b50505050905090810190601f1680156107295780820380516001836020036101000a031916815260200191505b509250505060405180910390f35b6107996004803603604081101561074d57600080fd5b81019080803573ffffffffffffffffffffffffffffffffffffffff169060200190929190803573ffffffffffffffffffffffffffffffffffffffff169060200190929190505050611213565b604051808215151515815260200191505060405180910390f35b6000806000837bffffffffffffffffffffffffffffffffffffffffffffffffffffffff19167bffffffffffffffffffffffffffffffffffffffffffffffffffffffff1916815260200190815260200160002060009054906101000a900460ff169050919050565b606060058054600181600116156101000203166002900480601f0160208091040260200160405190810160405280929190818152602001828054600181600116156101000203166002900480156108b25780601f10610887576101008083540402835291602001916108b2565b820191906000526020600020905b81548152906001019060200180831161089557829003601f168201915b5050505050905090565b60006108c7826112a7565b61091c576040517f08c379a000000000000000000000000000000000000000000000000000000000815260040180806020018281038252602c815260200180611c30602c913960400191505060405180910390fd5b6002600083815260200190815260200160002060009054906101000a900473ffffffffffffffffffffffffffffffffffffffff169050919050565b600061096282610bbf565b90508073ffffffffffffffffffffffffffffffffffffffff168373ffffffffffffffffffffffffffffffffffffffff1614156109e9576040517f08c379a0000000000000000000000000000000000000000000000000000000008152600401808060200182810382526021815260200180611cb46021913960400191505060405180910390fd5b8073ffffffffffffffffffffffffffffffffffffffff163373ffffffffffffffffffffffffffffffffffffffff161480610a295750610a288133611213565b5b610a7e576040517f08c379a0000000000000000000000000000000000000000000000000000000008152600401808060200182810382526038815260200180611ba56038913960400191505060405180910390fd5b826002600084815260200190815260200160002060006101000a81548173ffffffffffffffffffffffffffffffffffffffff021916908373ffffffffffffffffffffffffffffffffffffffff160217905550818373ffffffffffffffffffffffffffffffffffffffff168273ffffffffffffffffffffffffffffffffffffffff167f8c5be1e5ebec7d5bd14f71427d1e84f3dd0314c0f7b2291e5b200ac8c7c3b92560405160405180910390a4505050565b610b3a3382611319565b610b8f576040517f08c379a0000000000000000000000000000000000000000000000000000000008152600401808060200182810382526031815260200180611cd56031913960400191505060405180910390fd5b610b9a83838361140d565b505050565b610bba83838360405180602001604052806000815250611043565b505050565b6000806001600084815260200190815260200160002060009054906101000a900473ffffffffffffffffffffffffffffffffffffffff169050600073ffffffffffffffffffffffffffffffffffffffff168173ffffffffffffffffffffffffffffffffffffffff161415610c7e576040517f08c379a0000000000000000000000000000000000000000000000000000000008152600401808060200182810382526029815260200180611c076029913960400191505060405180910390fd5b80915050919050565b606060078054600181600116156101000203166002900480601f016020809104026020016040519081016040528092919081815260200182805460018160011615610100020316600290048015610d1f5780601f10610cf457610100808354040283529160200191610d1f565b820191906000526020600020905b815481529060010190602001808311610d0257829003601f168201915b5050505050905090565b60008073ffffffffffffffffffffffffffffffffffffffff168273ffffffffffffffffffffffffffffffffffffffff161415610db0576040517f08c379a000000000000000000000000000000000000000000000000000000000815260040180806020018281038252602a815260200180611bdd602a913960400191505060405180910390fd5b610df7600360008473ffffffffffffffffffffffffffffffffffffffff1673ffffffffffffffffffffffffffffffffffffffff168152602001908152602001600020611668565b9050919050565b606060068054600181600116156101000203166002900480601f016020809104026020016040519081016040528092919081815260200182805460018160011615610100020316600290048015610e965780601f10610e6b57610100808354040283529160200191610e96565b820191906000526020600020905b815481529060010190602001808311610e7957829003601f168201915b5050505050905090565b3373ffffffffffffffffffffffffffffffffffffffff168273ffffffffffffffffffffffffffffffffffffffff161415610f42576040517f08c379a00000000000000000000000000000000000000000000000000000000081526004018080602001828103825260198152602001807f4552433732313a20617070726f766520746f2063616c6c65720000000000000081525060200191505060405180910390fd5b80600460003373ffffffffffffffffffffffffffffffffffffffff1673ffffffffffffffffffffffffffffffffffffffff16815260200190815260200160002060008473ffffffffffffffffffffffffffffffffffffffff1673ffffffffffffffffffffffffffffffffffffffff16815260200190815260200160002060006101000a81548160ff0219169083151502179055508173ffffffffffffffffffffffffffffffffffffffff163373ffffffffffffffffffffffffffffffffffffffff167f17307eab39ab6107e8899845ad3d59bd9653f200f220920489ca2b5937696c3183604051808215151515815260200191505060405180910390a35050565b61104e848484610b30565b61105a84848484611676565b6110af576040517f08c379a0000000000000000000000000000000000000000000000000000000008152600401808060200182810382526032815260200180611b236032913960400191505060405180910390fd5b50505050565b60606110c0826112a7565b611115576040517f08c379a000000000000000000000000000000000000000000000000000000000815260040180806020018281038252602f815260200180611c85602f913960400191505060405180910390fd5b60076111208361185f565b604051602001808380546001816001161561010002031660029004801561117e5780601f1061115c57610100808354040283529182019161117e565b820191906000526020600020905b81548152906001019060200180831161116a575b5050807f2f0000000000000000000000000000000000000000000000000000000000000081525060010182805190602001908083835b602083106111d757805182526020820191506020810190506020830392506111b4565b6001836020036101000a038019825116818451168082178552505050505050905001925050506040516020818303038152906040529050919050565b6000600460008473ffffffffffffffffffffffffffffffffffffffff1673ffffffffffffffffffffffffffffffffffffffff16815260200190815260200160002060008373ffffffffffffffffffffffffffffffffffffffff1673ffffffffffffffffffffffffffffffffffffffff16815260200190815260200160002060009054906101000a900460ff16905092915050565b6000806001600084815260200190815260200160002060009054906101000a900473ffffffffffffffffffffffffffffffffffffffff169050600073ffffffffffffffffffffffffffffffffffffffff168173ffffffffffffffffffffffffffffffffffffffff161415915050919050565b6000611324826112a7565b611379576040517f08c379a000000000000000000000000000000000000000000000000000000000815260040180806020018281038252602c815260200180611b79602c913960400191505060405180910390fd5b600061138483610bbf565b90508073ffffffffffffffffffffffffffffffffffffffff168473ffffffffffffffffffffffffffffffffffffffff1614806113f357508373ffffffffffffffffffffffffffffffffffffffff166113db846108bc565b73ffffffffffffffffffffffffffffffffffffffff16145b8061140457506114038185611213565b5b91505092915050565b8273ffffffffffffffffffffffffffffffffffffffff1661142d82610bbf565b73ffffffffffffffffffffffffffffffffffffffff1614611499576040517f08c379a0000000000000000000000000000000000000000000000000000000008152600401808060200182810382526029815260200180611c5c6029913960400191505060405180910390fd5b600073ffffffffffffffffffffffffffffffffffffffff168273ffffffffffffffffffffffffffffffffffffffff16141561151f576040517f08c379a0000000000000000000000000000000000000000000000000000000008152600401808060200182810382526024815260200180611b556024913960400191505060405180910390fd5b6115288161198f565b61156f600360008573ffffffffffffffffffffffffffffffffffffffff1673ffffffffffffffffffffffffffffffffffffffff168152602001908152602001600020611a4d565b6115b6600360008473ffffffffffffffffffffffffffffffffffffffff1673ffffffffffffffffffffffffffffffffffffffff168152602001908152602001600020611a70565b816001600083815260200190815260200160002060006101000a81548173ffffffffffffffffffffffffffffffffffffffff021916908373ffffffffffffffffffffffffffffffffffffffff160217905550808273ffffffffffffffffffffffffffffffffffffffff168473ffffffffffffffffffffffffffffffffffffffff167fddf252ad1be2c89b69c2b068fc378daa952ba7f163c4a11628f55a4df523b3ef60405160405180910390a4505050565b600081600001549050919050565b60006116978473ffffffffffffffffffffffffffffffffffffffff16611a86565b6116a45760019050611857565b60008473ffffffffffffffffffffffffffffffffffffffff1663150b7a02338887876040518563ffffffff1660e01b8152600401808573ffffffffffffffffffffffffffffffffffffffff1673ffffffffffffffffffffffffffffffffffffffff1681526020018473ffffffffffffffffffffffffffffffffffffffff1673ffffffffffffffffffffffffffffffffffffffff16815260200183815260200180602001828103825283818151815260200191508051906020019080838360005b8381101561177f578082015181840152602081019050611764565b50505050905090810190601f1680156117ac5780820380516001836020036101000a031916815260200191505b5095505050505050602060405180830381600087803b1580156117ce57600080fd5b505af11580156117e2573d6000803e3d6000fd5b505050506040513d60208110156117f857600080fd5b8101908080519060200190929190505050905063150b7a0260e01b7bffffffffffffffffffffffffffffffffffffffffffffffffffffffff1916817bffffffffffffffffffffffffffffffffffffffffffffffffffffffff1916149150505b949350505050565b606060008214156118a7576040518060400160405280600181526020017f3000000000000000000000000000000000000000000000000000000000000000815250905061198a565b600082905060005b600082146118d1578080600101915050600a82816118c957fe5b0491506118af565b6060816040519080825280601f01601f1916602001820160405280156119065781602001600182028038833980820191505090505b50905060006001830390508593505b6000841461198257600a848161192757fe5b0660300160f81b8282806001900393508151811061194157fe5b60200101907effffffffffffffffffffffffffffffffffffffffffffffffffffffffffffff1916908160001a905350600a848161197a57fe5b049350611915565b819450505050505b919050565b600073ffffffffffffffffffffffffffffffffffffffff166002600083815260200190815260200160002060009054906101000a900473ffffffffffffffffffffffffffffffffffffffff1673ffffffffffffffffffffffffffffffffffffffff1614611a4a5760006002600083815260200190815260200160002060006101000a81548173ffffffffffffffffffffffffffffffffffffffff021916908373ffffffffffffffffffffffffffffffffffffffff1602179055505b50565b611a6560018260000154611a9990919063ffffffff16565b816000018190555050565b6001816000016000828254019250508190555050565b600080823b905060008111915050919050565b600082821115611b11576040517f08c379a000000000000000000000000000000000000000000000000000000000815260040180806020018281038252601e8152602001807f536166654d6174683a207375627472616374696f6e206f766572666c6f77000081525060200191505060405180910390fd5b60008284039050809150509291505056fe4552433732313a207472616e7366657220746f206e6f6e20455243373231526563656976657220696d706c656d656e7465724552433732313a207472616e7366657220746f20746865207a65726f20616464726573734552433732313a206f70657261746f7220717565727920666f72206e6f6e6578697374656e7420746f6b656e4552433732313a20617070726f76652063616c6c6572206973206e6f74206f776e6572206e6f7220617070726f76656420666f7220616c6c4552433732313a2062616c616e636520717565727920666f7220746865207a65726f20616464726573734552433732313a206f776e657220717565727920666f72206e6f6e6578697374656e7420746f6b656e4552433732313a20617070726f76656420717565727920666f72206e6f6e6578697374656e7420746f6b656e4552433732313a207472616e73666572206f6620746f6b656e2074686174206973206e6f74206f776e4552433732314d657461646174613a2055524920717565727920666f72206e6f6e6578697374656e7420746f6b656e4552433732313a20617070726f76616c20746f2063757272656e74206f776e65724552433732313a207472616e736665722063616c6c6572206973206e6f74206f776e6572206e6f7220617070726f766564a165627a7a72305820a4fa2d5eb30faa88683ba64acb28940164e42656b2892400f13862b1d2849aa20029",
  "linkReferences": {},
  "deployedLinkReferences": {}
}