{
  "_format": "hh-sol-artifact-1",
  "contractName": "OwnableInterfaceId",
  "sourceName": "contracts/rapm-contracts/mocks/OwnableInterfaceId.sol",
  "abi": [
    {
      "constant": true,
      "inputs": [],
      "name": "getInterfaceId",
      "outputs": [
        {
          "name": "",
          "type": "bytes4"
        }
      ],
      "payable": false,
      "stateMutability": "pure",
      "type": "function"
    }
  ],
  "bytecode": "0x608060405234801561001057600080fd5b50610148806100206000396000f3fe608060405234801561001057600080fd5b506004361061002b5760003560e01c80636b9241fc14610030575b600080fd5b61003861008c565b60405180827bffffffffffffffffffffffffffffffffffffffffffffffffffffffff19167bffffffffffffffffffffffffffffffffffffffffffffffffffffffff1916815260200191505060405180910390f35b6000808073ffffffffffffffffffffffffffffffffffffffff1663f2fde38b905060e01b8173ffffffffffffffffffffffffffffffffffffffff1663715018a6905060e01b8273ffffffffffffffffffffffffffffffffffffffff16638f32d59b905060e01b8373ffffffffffffffffffffffffffffffffffffffff16638da5cb5b905060e01b1818189150509056fea165627a7a72305820ef852253cb2f09cb2235cbd8d2b316aa4185283a24c05f409374b2d79618cd060029",
  "linkReferences": {},
  "deployedLinkReferences": {}
}