{
  "contracts/AbstractUser.sol": {
    "AbstractUser": {
      "abi": [
        {
          "constant": true,
          "inputs": [],
          "name": "isActive",
          "outputs": [
            {
              "name": "",
              "type": "bool"
            }
          ],
          "payable": false,
          "stateMutability": "view",
          "type": "function"
        },
        {
          "constant": false,
          "inputs": [
            {
              "name": "account",
              "type": "address"
            }
          ],
          "name": "addManager",
          "outputs": [],
          "payable": false,
          "stateMutability": "nonpayable",
          "type": "function"
        },
        {
          "constant": true,
          "inputs": [],
          "name": "getUserId",
          "outputs": [
            {
              "name": "",
              "type": "bytes32"
            }
          ],
          "payable": false,
          "stateMutability": "view",
          "type": "function"
        },
        {
          "constant": false,
          "inputs": [
            {
              "name": "itemId",
              "type": "uint256"
            }
          ],
          "name": "removeItemToInventory",
          "outputs": [],
          "payable": false,
          "stateMutability": "nonpayable",
          "type": "function"
        },
        {
          "constant": false,
          "inputs": [
            {
              "name": "itemId",
              "type": "uint256"
            },
            {
              "name": "url",
              "type": "bytes32"
            }
          ],
          "name": "addItemToInventory",
          "outputs": [],
          "payable": false,
          "stateMutability": "nonpayable",
          "type": "function"
        },
        {
          "constant": false,
          "inputs": [],
          "name": "destroy",
          "outputs": [],
          "payable": false,
          "stateMutability": "nonpayable",
          "type": "function"
        },
        {
          "constant": false,
          "inputs": [
            {
              "name": "account",
              "type": "address"
            }
          ],
          "name": "removeManager",
          "outputs": [],
          "payable": false,
          "stateMutability": "nonpayable",
          "type": "function"
        },
        {
          "constant": true,
          "inputs": [
            {
              "name": "itemId",
              "type": "uint256"
            }
          ],
          "name": "checkInventory",
          "outputs": [
            {
              "name": "",
              "type": "bytes32"
            }
          ],
          "payable": false,
          "stateMutability": "view",
          "type": "function"
        },
        {
          "constant": true,
          "inputs": [
            {
              "name": "account",
              "type": "address"
            }
          ],
          "name": "isManager",
          "outputs": [
            {
              "name": "",
              "type": "bool"
            }
          ],
          "payable": false,
          "stateMutability": "view",
          "type": "function"
        },
        {
          "inputs": [
            {
              "name": "userId",
              "type": "bytes32"
            }
          ],
          "payable": false,
          "stateMutability": "nonpayable",
          "type": "constructor"
        },
        {
          "anonymous": false,
          "inputs": [
            {
              "indexed": true,
              "name": "account",
              "type": "address"
            }
          ],
          "name": "ManagerAdded",
          "type": "event"
        },
        {
          "anonymous": false,
          "inputs": [
            {
              "indexed": true,
              "name": "account",
              "type": "address"
            }
          ],
          "name": "ManagerRemoved",
          "type": "event"
        }
      ],
      "evm": {
        "bytecode": {
          "linkReferences": {},
          "object": "608060405234801561001057600080fd5b50604051602080610d578339810180604052602081101561003057600080fd5b810190808051906020019092919050505061005933600061008160201b6108ad1790919060201c565b806001819055506001600260006101000a81548160ff02191690831515021790555050610240565b610091828261016260201b60201c565b15610104576040517f08c379a000000000000000000000000000000000000000000000000000000000815260040180806020018281038252601f8152602001807f526f6c65733a206163636f756e7420616c72656164792068617320726f6c650081525060200191505060405180910390fd5b60018260000160008373ffffffffffffffffffffffffffffffffffffffff1673ffffffffffffffffffffffffffffffffffffffff16815260200190815260200160002060006101000a81548160ff0219169083151502179055505050565b60008073ffffffffffffffffffffffffffffffffffffffff168273ffffffffffffffffffffffffffffffffffffffff1614156101e9576040517f08c379a0000000000000000000000000000000000000000000000000000000008152600401808060200182810382526022815260200180610d356022913960400191505060405180910390fd5b8260000160008373ffffffffffffffffffffffffffffffffffffffff1673ffffffffffffffffffffffffffffffffffffffff16815260200190815260200160002060009054906101000a900460ff16905092915050565b610ae68061024f6000396000f3fe608060405234801561001057600080fd5b50600436106100935760003560e01c806358c273b21161006657806358c273b21461014a57806383197ef014610182578063ac18de431461018c578063e9f998ce146101d0578063f3ae24151461021257610093565b806322f3e2d4146100985780632d06177a146100ba5780632ebcb653146100fe5780633383f0f71461011c575b600080fd5b6100a061026e565b604051808215151515815260200191505060405180910390f35b6100fc600480360360208110156100d057600080fd5b81019080803573ffffffffffffffffffffffffffffffffffffffff169060200190929190505050610285565b005b610106610348565b6040518082815260200191505060405180910390f35b6101486004803603602081101561013257600080fd5b8101908080359060200190929190505050610352565b005b6101806004803603604081101561016057600080fd5b81019080803590602001909291908035906020019092919050505061047b565b005b61018a6105a6565b005b6101ce600480360360208110156101a257600080fd5b81019080803573ffffffffffffffffffffffffffffffffffffffff16906020019092919050505061062c565b005b6101fc600480360360208110156101e657600080fd5b81019080803590602001909291905050506106ef565b6040518082815260200191505060405180910390f35b6102546004803603602081101561022857600080fd5b81019080803573ffffffffffffffffffffffffffffffffffffffff1690602001909291905050506107b2565b604051808215151515815260200191505060405180910390f35b6000600260009054906101000a900460ff16905090565b6102993360006107cf90919063ffffffff16565b6102ee576040517f08c379a0000000000000000000000000000000000000000000000000000000008152600401808060200182810382526032815260200180610a676032913960400191505060405180910390fd5b6103028160006108ad90919063ffffffff16565b8073ffffffffffffffffffffffffffffffffffffffff167f3b4a40cccf2058c593542587329dd385be4f0b588db5471fbd9598e56dd7093a60405160405180910390a250565b6000600154905090565b6103663360006107cf90919063ffffffff16565b6103bb576040517f08c379a0000000000000000000000000000000000000000000000000000000008152600401808060200182810382526032815260200180610a676032913960400191505060405180910390fd5b600260009054906101000a900460ff1661043d576040517f08c379a000000000000000000000000000000000000000000000000000000000815260040180806020018281038252601d8152602001807f4162737472616374557365723a2075736572206e6f742061637469766500000081525060200191505060405180910390fd5b60036000600260009054906101000a900460ff1615151515815260200190815260200160002060008281526020019081526020016000206000905550565b61048f3360006107cf90919063ffffffff16565b6104e4576040517f08c379a0000000000000000000000000000000000000000000000000000000008152600401808060200182810382526032815260200180610a676032913960400191505060405180910390fd5b600260009054906101000a900460ff16610566576040517f08c379a000000000000000000000000000000000000000000000000000000000815260040180806020018281038252601d8152602001807f4162737472616374557365723a2075736572206e6f742061637469766500000081525060200191505060405180910390fd5b8060036000600260009054906101000a900460ff161515151581526020019081526020016000206000848152602001908152602001600020819055505050565b6105ba3360006107cf90919063ffffffff16565b61060f576040517f08c379a0000000000000000000000000000000000000000000000000000000008152600401808060200182810382526032815260200180610a676032913960400191505060405180910390fd5b6000600260006101000a81548160ff021916908315150217905550565b6106403360006107cf90919063ffffffff16565b610695576040517f08c379a0000000000000000000000000000000000000000000000000000000008152600401808060200182810382526032815260200180610a676032913960400191505060405180910390fd5b6106a981600061098890919063ffffffff16565b8073ffffffffffffffffffffffffffffffffffffffff167fef69f7d97228658c92417be1b16b19058315de71fecb435d07b7d23728b6bd3160405160405180910390a250565b6000600260009054906101000a900460ff16610773576040517f08c379a000000000000000000000000000000000000000000000000000000000815260040180806020018281038252601d8152602001807f4162737472616374557365723a2075736572206e6f742061637469766500000081525060200191505060405180910390fd5b60036000600260009054906101000a900460ff161515151581526020019081526020016000206000838152602001908152602001600020549050919050565b60006107c88260006107cf90919063ffffffff16565b9050919050565b60008073ffffffffffffffffffffffffffffffffffffffff168273ffffffffffffffffffffffffffffffffffffffff161415610856576040517f08c379a0000000000000000000000000000000000000000000000000000000008152600401808060200182810382526022815260200180610a996022913960400191505060405180910390fd5b8260000160008373ffffffffffffffffffffffffffffffffffffffff1673ffffffffffffffffffffffffffffffffffffffff16815260200190815260200160002060009054906101000a900460ff16905092915050565b6108b782826107cf565b1561092a576040517f08c379a000000000000000000000000000000000000000000000000000000000815260040180806020018281038252601f8152602001807f526f6c65733a206163636f756e7420616c72656164792068617320726f6c650081525060200191505060405180910390fd5b60018260000160008373ffffffffffffffffffffffffffffffffffffffff1673ffffffffffffffffffffffffffffffffffffffff16815260200190815260200160002060006101000a81548160ff0219169083151502179055505050565b61099282826107cf565b6109e7576040517f08c379a0000000000000000000000000000000000000000000000000000000008152600401808060200182810382526021815260200180610a466021913960400191505060405180910390fd5b60008260000160008373ffffffffffffffffffffffffffffffffffffffff1673ffffffffffffffffffffffffffffffffffffffff16815260200190815260200160002060006101000a81548160ff021916908315150217905550505056fe526f6c65733a206163636f756e7420646f6573206e6f74206861766520726f6c654d616e61676572526f6c653a2063616c6c657220646f6573206e6f74206861766520746865204d616e6167657220726f6c65526f6c65733a206163636f756e7420697320746865207a65726f2061646472657373a165627a7a723058209d61af8a30af9fe54a2898fb0dd7bf0a76a3e517b0e21584b44690bd2ae4e0c10029526f6c65733a206163636f756e7420697320746865207a65726f2061646472657373",
          "opcodes": "PUSH1 0x80 PUSH1 0x40 MSTORE CALLVALUE DUP1 ISZERO PUSH2 0x10 JUMPI PUSH1 0x0 DUP1 REVERT JUMPDEST POP PUSH1 0x40 MLOAD PUSH1 0x20 DUP1 PUSH2 0xD57 DUP4 CODECOPY DUP2 ADD DUP1 PUSH1 0x40 MSTORE PUSH1 0x20 DUP2 LT ISZERO PUSH2 0x30 JUMPI PUSH1 0x0 DUP1 REVERT JUMPDEST DUP2 ADD SWAP1 DUP1 DUP1 MLOAD SWAP1 PUSH1 0x20 ADD SWAP1 SWAP3 SWAP2 SWAP1 POP POP POP PUSH2 0x59 CALLER PUSH1 0x0 PUSH2 0x81 PUSH1 0x20 SHL PUSH2 0x8AD OR SWAP1 SWAP2 SWAP1 PUSH1 0x20 SHR JUMP JUMPDEST DUP1 PUSH1 0x1 DUP2 SWAP1 SSTORE POP PUSH1 0x1 PUSH1 0x2 PUSH1 0x0 PUSH2 0x100 EXP DUP2 SLOAD DUP2 PUSH1 0xFF MUL NOT AND SWAP1 DUP4 ISZERO ISZERO MUL OR SWAP1 SSTORE POP POP PUSH2 0x240 JUMP JUMPDEST PUSH2 0x91 DUP3 DUP3 PUSH2 0x162 PUSH1 0x20 SHL PUSH1 0x20 SHR JUMP JUMPDEST ISZERO PUSH2 0x104 JUMPI PUSH1 0x40 MLOAD PUSH32 0x8C379A000000000000000000000000000000000000000000000000000000000 DUP2 MSTORE PUSH1 0x4 ADD DUP1 DUP1 PUSH1 0x20 ADD DUP3 DUP2 SUB DUP3 MSTORE PUSH1 0x1F DUP2 MSTORE PUSH1 0x20 ADD DUP1 PUSH32 0x526F6C65733A206163636F756E7420616C72656164792068617320726F6C6500 DUP2 MSTORE POP PUSH1 0x20 ADD SWAP2 POP POP PUSH1 0x40 MLOAD DUP1 SWAP2 SUB SWAP1 REVERT JUMPDEST PUSH1 0x1 DUP3 PUSH1 0x0 ADD PUSH1 0x0 DUP4 PUSH20 0xFFFFFFFFFFFFFFFFFFFFFFFFFFFFFFFFFFFFFFFF AND PUSH20 0xFFFFFFFFFFFFFFFFFFFFFFFFFFFFFFFFFFFFFFFF AND DUP2 MSTORE PUSH1 0x20 ADD SWAP1 DUP2 MSTORE PUSH1 0x20 ADD PUSH1 0x0 KECCAK256 PUSH1 0x0 PUSH2 0x100 EXP DUP2 SLOAD DUP2 PUSH1 0xFF MUL NOT AND SWAP1 DUP4 ISZERO ISZERO MUL OR SWAP1 SSTORE POP POP POP JUMP JUMPDEST PUSH1 0x0 DUP1 PUSH20 0xFFFFFFFFFFFFFFFFFFFFFFFFFFFFFFFFFFFFFFFF AND DUP3 PUSH20 0xFFFFFFFFFFFFFFFFFFFFFFFFFFFFFFFFFFFFFFFF AND EQ ISZERO PUSH2 0x1E9 JUMPI PUSH1 0x40 MLOAD PUSH32 0x8C379A000000000000000000000000000000000000000000000000000000000 DUP2 MSTORE PUSH1 0x4 ADD DUP1 DUP1 PUSH1 0x20 ADD DUP3 DUP2 SUB DUP3 MSTORE PUSH1 0x22 DUP2 MSTORE PUSH1 0x20 ADD DUP1 PUSH2 0xD35 PUSH1 0x22 SWAP2 CODECOPY PUSH1 0x40 ADD SWAP2 POP POP PUSH1 0x40 MLOAD DUP1 SWAP2 SUB SWAP1 REVERT JUMPDEST DUP3 PUSH1 0x0 ADD PUSH1 0x0 DUP4 PUSH20 0xFFFFFFFFFFFFFFFFFFFFFFFFFFFFFFFFFFFFFFFF AND PUSH20 0xFFFFFFFFFFFFFFFFFFFFFFFFFFFFFFFFFFFFFFFF AND DUP2 MSTORE PUSH1 0x20 ADD SWAP1 DUP2 MSTORE PUSH1 0x20 ADD PUSH1 0x0 KECCAK256 PUSH1 0x0 SWAP1 SLOAD SWAP1 PUSH2 0x100 EXP SWAP1 DIV PUSH1 0xFF AND SWAP1 POP SWAP3 SWAP2 POP POP JUMP JUMPDEST PUSH2 0xAE6 DUP1 PUSH2 0x24F PUSH1 0x0 CODECOPY PUSH1 0x0 RETURN INVALID PUSH1 0x80 PUSH1 0x40 MSTORE CALLVALUE DUP1 ISZERO PUSH2 0x10 JUMPI PUSH1 0x0 DUP1 REVERT JUMPDEST POP PUSH1 0x4 CALLDATASIZE LT PUSH2 0x93 JUMPI PUSH1 0x0 CALLDATALOAD PUSH1 0xE0 SHR DUP1 PUSH4 0x58C273B2 GT PUSH2 0x66 JUMPI DUP1 PUSH4 0x58C273B2 EQ PUSH2 0x14A JUMPI DUP1 PUSH4 0x83197EF0 EQ PUSH2 0x182 JUMPI DUP1 PUSH4 0xAC18DE43 EQ PUSH2 0x18C JUMPI DUP1 PUSH4 0xE9F998CE EQ PUSH2 0x1D0 JUMPI DUP1 PUSH4 0xF3AE2415 EQ PUSH2 0x212 JUMPI PUSH2 0x93 JUMP JUMPDEST DUP1 PUSH4 0x22F3E2D4 EQ PUSH2 0x98 JUMPI DUP1 PUSH4 0x2D06177A EQ PUSH2 0xBA JUMPI DUP1 PUSH4 0x2EBCB653 EQ PUSH2 0xFE JUMPI DUP1 PUSH4 0x3383F0F7 EQ PUSH2 0x11C JUMPI JUMPDEST PUSH1 0x0 DUP1 REVERT JUMPDEST PUSH2 0xA0 PUSH2 0x26E JUMP JUMPDEST PUSH1 0x40 MLOAD DUP1 DUP3 ISZERO ISZERO ISZERO ISZERO DUP2 MSTORE PUSH1 0x20 ADD SWAP2 POP POP PUSH1 0x40 MLOAD DUP1 SWAP2 SUB SWAP1 RETURN JUMPDEST PUSH2 0xFC PUSH1 0x4 DUP1 CALLDATASIZE SUB PUSH1 0x20 DUP2 LT ISZERO PUSH2 0xD0 JUMPI PUSH1 0x0 DUP1 REVERT JUMPDEST DUP2 ADD SWAP1 DUP1 DUP1 CALLDATALOAD PUSH20 0xFFFFFFFFFFFFFFFFFFFFFFFFFFFFFFFFFFFFFFFF AND SWAP1 PUSH1 0x20 ADD SWAP1 SWAP3 SWAP2 SWAP1 POP POP POP PUSH2 0x285 JUMP JUMPDEST STOP JUMPDEST PUSH2 0x106 PUSH2 0x348 JUMP JUMPDEST PUSH1 0x40 MLOAD DUP1 DUP3 DUP2 MSTORE PUSH1 0x20 ADD SWAP2 POP POP PUSH1 0x40 MLOAD DUP1 SWAP2 SUB SWAP1 RETURN JUMPDEST PUSH2 0x148 PUSH1 0x4 DUP1 CALLDATASIZE SUB PUSH1 0x20 DUP2 LT ISZERO PUSH2 0x132 JUMPI PUSH1 0x0 DUP1 REVERT JUMPDEST DUP2 ADD SWAP1 DUP1 DUP1 CALLDATALOAD SWAP1 PUSH1 0x20 ADD SWAP1 SWAP3 SWAP2 SWAP1 POP POP POP PUSH2 0x352 JUMP JUMPDEST STOP JUMPDEST PUSH2 0x180 PUSH1 0x4 DUP1 CALLDATASIZE SUB PUSH1 0x40 DUP2 LT ISZERO PUSH2 0x160 JUMPI PUSH1 0x0 DUP1 REVERT JUMPDEST DUP2 ADD SWAP1 DUP1 DUP1 CALLDATALOAD SWAP1 PUSH1 0x20 ADD SWAP1 SWAP3 SWAP2 SWAP1 DUP1 CALLDATALOAD SWAP1 PUSH1 0x20 ADD SWAP1 SWAP3 SWAP2 SWAP1 POP POP POP PUSH2 0x47B JUMP JUMPDEST STOP JUMPDEST PUSH2 0x18A PUSH2 0x5A6 JUMP JUMPDEST STOP JUMPDEST PUSH2 0x1CE PUSH1 0x4 DUP1 CALLDATASIZE SUB PUSH1 0x20 DUP2 LT ISZERO PUSH2 0x1A2 JUMPI PUSH1 0x0 DUP1 REVERT JUMPDEST DUP2 ADD SWAP1 DUP1 DUP1 CALLDATALOAD PUSH20 0xFFFFFFFFFFFFFFFFFFFFFFFFFFFFFFFFFFFFFFFF AND SWAP1 PUSH1 0x20 ADD SWAP1 SWAP3 SWAP2 SWAP1 POP POP POP PUSH2 0x62C JUMP JUMPDEST STOP JUMPDEST PUSH2 0x1FC PUSH1 0x4 DUP1 CALLDATASIZE SUB PUSH1 0x20 DUP2 LT ISZERO PUSH2 0x1E6 JUMPI PUSH1 0x0 DUP1 REVERT JUMPDEST DUP2 ADD SWAP1 DUP1 DUP1 CALLDATALOAD SWAP1 PUSH1 0x20 ADD SWAP1 SWAP3 SWAP2 SWAP1 POP POP POP PUSH2 0x6EF JUMP JUMPDEST PUSH1 0x40 MLOAD DUP1 DUP3 DUP2 MSTORE PUSH1 0x20 ADD SWAP2 POP POP PUSH1 0x40 MLOAD DUP1 SWAP2 SUB SWAP1 RETURN JUMPDEST PUSH2 0x254 PUSH1 0x4 DUP1 CALLDATASIZE SUB PUSH1 0x20 DUP2 LT ISZERO PUSH2 0x228 JUMPI PUSH1 0x0 DUP1 REVERT JUMPDEST DUP2 ADD SWAP1 DUP1 DUP1 CALLDATALOAD PUSH20 0xFFFFFFFFFFFFFFFFFFFFFFFFFFFFFFFFFFFFFFFF AND SWAP1 PUSH1 0x20 ADD SWAP1 SWAP3 SWAP2 SWAP1 POP POP POP PUSH2 0x7B2 JUMP JUMPDEST PUSH1 0x40 MLOAD DUP1 DUP3 ISZERO ISZERO ISZERO ISZERO DUP2 MSTORE PUSH1 0x20 ADD SWAP2 POP POP PUSH1 0x40 MLOAD DUP1 SWAP2 SUB SWAP1 RETURN JUMPDEST PUSH1 0x0 PUSH1 0x2 PUSH1 0x0 SWAP1 SLOAD SWAP1 PUSH2 0x100 EXP SWAP1 DIV PUSH1 0xFF AND SWAP1 POP SWAP1 JUMP JUMPDEST PUSH2 0x299 CALLER PUSH1 0x0 PUSH2 0x7CF SWAP1 SWAP2 SWAP1 PUSH4 0xFFFFFFFF AND JUMP JUMPDEST PUSH2 0x2EE JUMPI PUSH1 0x40 MLOAD PUSH32 0x8C379A000000000000000000000000000000000000000000000000000000000 DUP2 MSTORE PUSH1 0x4 ADD DUP1 DUP1 PUSH1 0x20 ADD DUP3 DUP2 SUB DUP3 MSTORE PUSH1 0x32 DUP2 MSTORE PUSH1 0x20 ADD DUP1 PUSH2 0xA67 PUSH1 0x32 SWAP2 CODECOPY PUSH1 0x40 ADD SWAP2 POP POP PUSH1 0x40 MLOAD DUP1 SWAP2 SUB SWAP1 REVERT JUMPDEST PUSH2 0x302 DUP2 PUSH1 0x0 PUSH2 0x8AD SWAP1 SWAP2 SWAP1 PUSH4 0xFFFFFFFF AND JUMP JUMPDEST DUP1 PUSH20 0xFFFFFFFFFFFFFFFFFFFFFFFFFFFFFFFFFFFFFFFF AND PUSH32 0x3B4A40CCCF2058C593542587329DD385BE4F0B588DB5471FBD9598E56DD7093A PUSH1 0x40 MLOAD PUSH1 0x40 MLOAD DUP1 SWAP2 SUB SWAP1 LOG2 POP JUMP JUMPDEST PUSH1 0x0 PUSH1 0x1 SLOAD SWAP1 POP SWAP1 JUMP JUMPDEST PUSH2 0x366 CALLER PUSH1 0x0 PUSH2 0x7CF SWAP1 SWAP2 SWAP1 PUSH4 0xFFFFFFFF AND JUMP JUMPDEST PUSH2 0x3BB JUMPI PUSH1 0x40 MLOAD PUSH32 0x8C379A000000000000000000000000000000000000000000000000000000000 DUP2 MSTORE PUSH1 0x4 ADD DUP1 DUP1 PUSH1 0x20 ADD DUP3 DUP2 SUB DUP3 MSTORE PUSH1 0x32 DUP2 MSTORE PUSH1 0x20 ADD DUP1 PUSH2 0xA67 PUSH1 0x32 SWAP2 CODECOPY PUSH1 0x40 ADD SWAP2 POP POP PUSH1 0x40 MLOAD DUP1 SWAP2 SUB SWAP1 REVERT JUMPDEST PUSH1 0x2 PUSH1 0x0 SWAP1 SLOAD SWAP1 PUSH2 0x100 EXP SWAP1 DIV PUSH1 0xFF AND PUSH2 0x43D JUMPI PUSH1 0x40 MLOAD PUSH32 0x8C379A000000000000000000000000000000000000000000000000000000000 DUP2 MSTORE PUSH1 0x4 ADD DUP1 DUP1 PUSH1 0x20 ADD DUP3 DUP2 SUB DUP3 MSTORE PUSH1 0x1D DUP2 MSTORE PUSH1 0x20 ADD DUP1 PUSH32 0x4162737472616374557365723A2075736572206E6F7420616374697665000000 DUP2 MSTORE POP PUSH1 0x20 ADD SWAP2 POP POP PUSH1 0x40 MLOAD DUP1 SWAP2 SUB SWAP1 REVERT JUMPDEST PUSH1 0x3 PUSH1 0x0 PUSH1 0x2 PUSH1 0x0 SWAP1 SLOAD SWAP1 PUSH2 0x100 EXP SWAP1 DIV PUSH1 0xFF AND ISZERO ISZERO ISZERO ISZERO DUP2 MSTORE PUSH1 0x20 ADD SWAP1 DUP2 MSTORE PUSH1 0x20 ADD PUSH1 0x0 KECCAK256 PUSH1 0x0 DUP3 DUP2 MSTORE PUSH1 0x20 ADD SWAP1 DUP2 MSTORE PUSH1 0x20 ADD PUSH1 0x0 KECCAK256 PUSH1 0x0 SWAP1 SSTORE POP JUMP JUMPDEST PUSH2 0x48F CALLER PUSH1 0x0 PUSH2 0x7CF SWAP1 SWAP2 SWAP1 PUSH4 0xFFFFFFFF AND JUMP JUMPDEST PUSH2 0x4E4 JUMPI PUSH1 0x40 MLOAD PUSH32 0x8C379A000000000000000000000000000000000000000000000000000000000 DUP2 MSTORE PUSH1 0x4 ADD DUP1 DUP1 PUSH1 0x20 ADD DUP3 DUP2 SUB DUP3 MSTORE PUSH1 0x32 DUP2 MSTORE PUSH1 0x20 ADD DUP1 PUSH2 0xA67 PUSH1 0x32 SWAP2 CODECOPY PUSH1 0x40 ADD SWAP2 POP POP PUSH1 0x40 MLOAD DUP1 SWAP2 SUB SWAP1 REVERT JUMPDEST PUSH1 0x2 PUSH1 0x0 SWAP1 SLOAD SWAP1 PUSH2 0x100 EXP SWAP1 DIV PUSH1 0xFF AND PUSH2 0x566 JUMPI PUSH1 0x40 MLOAD PUSH32 0x8C379A000000000000000000000000000000000000000000000000000000000 DUP2 MSTORE PUSH1 0x4 ADD DUP1 DUP1 PUSH1 0x20 ADD DUP3 DUP2 SUB DUP3 MSTORE PUSH1 0x1D DUP2 MSTORE PUSH1 0x20 ADD DUP1 PUSH32 0x4162737472616374557365723A2075736572206E6F7420616374697665000000 DUP2 MSTORE POP PUSH1 0x20 ADD SWAP2 POP POP PUSH1 0x40 MLOAD DUP1 SWAP2 SUB SWAP1 REVERT JUMPDEST DUP1 PUSH1 0x3 PUSH1 0x0 PUSH1 0x2 PUSH1 0x0 SWAP1 SLOAD SWAP1 PUSH2 0x100 EXP SWAP1 DIV PUSH1 0xFF AND ISZERO ISZERO ISZERO ISZERO DUP2 MSTORE PUSH1 0x20 ADD SWAP1 DUP2 MSTORE PUSH1 0x20 ADD PUSH1 0x0 KECCAK256 PUSH1 0x0 DUP5 DUP2 MSTORE PUSH1 0x20 ADD SWAP1 DUP2 MSTORE PUSH1 0x20 ADD PUSH1 0x0 KECCAK256 DUP2 SWAP1 SSTORE POP POP POP JUMP JUMPDEST PUSH2 0x5BA CALLER PUSH1 0x0 PUSH2 0x7CF SWAP1 SWAP2 SWAP1 PUSH4 0xFFFFFFFF AND JUMP JUMPDEST PUSH2 0x60F JUMPI PUSH1 0x40 MLOAD PUSH32 0x8C379A000000000000000000000000000000000000000000000000000000000 DUP2 MSTORE PUSH1 0x4 ADD DUP1 DUP1 PUSH1 0x20 ADD DUP3 DUP2 SUB DUP3 MSTORE PUSH1 0x32 DUP2 MSTORE PUSH1 0x20 ADD DUP1 PUSH2 0xA67 PUSH1 0x32 SWAP2 CODECOPY PUSH1 0x40 ADD SWAP2 POP POP PUSH1 0x40 MLOAD DUP1 SWAP2 SUB SWAP1 REVERT JUMPDEST PUSH1 0x0 PUSH1 0x2 PUSH1 0x0 PUSH2 0x100 EXP DUP2 SLOAD DUP2 PUSH1 0xFF MUL NOT AND SWAP1 DUP4 ISZERO ISZERO MUL OR SWAP1 SSTORE POP JUMP JUMPDEST PUSH2 0x640 CALLER PUSH1 0x0 PUSH2 0x7CF SWAP1 SWAP2 SWAP1 PUSH4 0xFFFFFFFF AND JUMP JUMPDEST PUSH2 0x695 JUMPI PUSH1 0x40 MLOAD PUSH32 0x8C379A000000000000000000000000000000000000000000000000000000000 DUP2 MSTORE PUSH1 0x4 ADD DUP1 DUP1 PUSH1 0x20 ADD DUP3 DUP2 SUB DUP3 MSTORE PUSH1 0x32 DUP2 MSTORE PUSH1 0x20 ADD DUP1 PUSH2 0xA67 PUSH1 0x32 SWAP2 CODECOPY PUSH1 0x40 ADD SWAP2 POP POP PUSH1 0x40 MLOAD DUP1 SWAP2 SUB SWAP1 REVERT JUMPDEST PUSH2 0x6A9 DUP2 PUSH1 0x0 PUSH2 0x988 SWAP1 SWAP2 SWAP1 PUSH4 0xFFFFFFFF AND JUMP JUMPDEST DUP1 PUSH20 0xFFFFFFFFFFFFFFFFFFFFFFFFFFFFFFFFFFFFFFFF AND PUSH32 0xEF69F7D97228658C92417BE1B16B19058315DE71FECB435D07B7D23728B6BD31 PUSH1 0x40 MLOAD PUSH1 0x40 MLOAD DUP1 SWAP2 SUB SWAP1 LOG2 POP JUMP JUMPDEST PUSH1 0x0 PUSH1 0x2 PUSH1 0x0 SWAP1 SLOAD SWAP1 PUSH2 0x100 EXP SWAP1 DIV PUSH1 0xFF AND PUSH2 0x773 JUMPI PUSH1 0x40 MLOAD PUSH32 0x8C379A000000000000000000000000000000000000000000000000000000000 DUP2 MSTORE PUSH1 0x4 ADD DUP1 DUP1 PUSH1 0x20 ADD DUP3 DUP2 SUB DUP3 MSTORE PUSH1 0x1D DUP2 MSTORE PUSH1 0x20 ADD DUP1 PUSH32 0x4162737472616374557365723A2075736572206E6F7420616374697665000000 DUP2 MSTORE POP PUSH1 0x20 ADD SWAP2 POP POP PUSH1 0x40 MLOAD DUP1 SWAP2 SUB SWAP1 REVERT JUMPDEST PUSH1 0x3 PUSH1 0x0 PUSH1 0x2 PUSH1 0x0 SWAP1 SLOAD SWAP1 PUSH2 0x100 EXP SWAP1 DIV PUSH1 0xFF AND ISZERO ISZERO ISZERO ISZERO DUP2 MSTORE PUSH1 0x20 ADD SWAP1 DUP2 MSTORE PUSH1 0x20 ADD PUSH1 0x0 KECCAK256 PUSH1 0x0 DUP4 DUP2 MSTORE PUSH1 0x20 ADD SWAP1 DUP2 MSTORE PUSH1 0x20 ADD PUSH1 0x0 KECCAK256 SLOAD SWAP1 POP SWAP2 SWAP1 POP JUMP JUMPDEST PUSH1 0x0 PUSH2 0x7C8 DUP3 PUSH1 0x0 PUSH2 0x7CF SWAP1 SWAP2 SWAP1 PUSH4 0xFFFFFFFF AND JUMP JUMPDEST SWAP1 POP SWAP2 SWAP1 POP JUMP JUMPDEST PUSH1 0x0 DUP1 PUSH20 0xFFFFFFFFFFFFFFFFFFFFFFFFFFFFFFFFFFFFFFFF AND DUP3 PUSH20 0xFFFFFFFFFFFFFFFFFFFFFFFFFFFFFFFFFFFFFFFF AND EQ ISZERO PUSH2 0x856 JUMPI PUSH1 0x40 MLOAD PUSH32 0x8C379A000000000000000000000000000000000000000000000000000000000 DUP2 MSTORE PUSH1 0x4 ADD DUP1 DUP1 PUSH1 0x20 ADD DUP3 DUP2 SUB DUP3 MSTORE PUSH1 0x22 DUP2 MSTORE PUSH1 0x20 ADD DUP1 PUSH2 0xA99 PUSH1 0x22 SWAP2 CODECOPY PUSH1 0x40 ADD SWAP2 POP POP PUSH1 0x40 MLOAD DUP1 SWAP2 SUB SWAP1 REVERT JUMPDEST DUP3 PUSH1 0x0 ADD PUSH1 0x0 DUP4 PUSH20 0xFFFFFFFFFFFFFFFFFFFFFFFFFFFFFFFFFFFFFFFF AND PUSH20 0xFFFFFFFFFFFFFFFFFFFFFFFFFFFFFFFFFFFFFFFF AND DUP2 MSTORE PUSH1 0x20 ADD SWAP1 DUP2 MSTORE PUSH1 0x20 ADD PUSH1 0x0 KECCAK256 PUSH1 0x0 SWAP1 SLOAD SWAP1 PUSH2 0x100 EXP SWAP1 DIV PUSH1 0xFF AND SWAP1 POP SWAP3 SWAP2 POP POP JUMP JUMPDEST PUSH2 0x8B7 DUP3 DUP3 PUSH2 0x7CF JUMP JUMPDEST ISZERO PUSH2 0x92A JUMPI PUSH1 0x40 MLOAD PUSH32 0x8C379A000000000000000000000000000000000000000000000000000000000 DUP2 MSTORE PUSH1 0x4 ADD DUP1 DUP1 PUSH1 0x20 ADD DUP3 DUP2 SUB DUP3 MSTORE PUSH1 0x1F DUP2 MSTORE PUSH1 0x20 ADD DUP1 PUSH32 0x526F6C65733A206163636F756E7420616C72656164792068617320726F6C6500 DUP2 MSTORE POP PUSH1 0x20 ADD SWAP2 POP POP PUSH1 0x40 MLOAD DUP1 SWAP2 SUB SWAP1 REVERT JUMPDEST PUSH1 0x1 DUP3 PUSH1 0x0 ADD PUSH1 0x0 DUP4 PUSH20 0xFFFFFFFFFFFFFFFFFFFFFFFFFFFFFFFFFFFFFFFF AND PUSH20 0xFFFFFFFFFFFFFFFFFFFFFFFFFFFFFFFFFFFFFFFF AND DUP2 MSTORE PUSH1 0x20 ADD SWAP1 DUP2 MSTORE PUSH1 0x20 ADD PUSH1 0x0 KECCAK256 PUSH1 0x0 PUSH2 0x100 EXP DUP2 SLOAD DUP2 PUSH1 0xFF MUL NOT AND SWAP1 DUP4 ISZERO ISZERO MUL OR SWAP1 SSTORE POP POP POP JUMP JUMPDEST PUSH2 0x992 DUP3 DUP3 PUSH2 0x7CF JUMP JUMPDEST PUSH2 0x9E7 JUMPI PUSH1 0x40 MLOAD PUSH32 0x8C379A000000000000000000000000000000000000000000000000000000000 DUP2 MSTORE PUSH1 0x4 ADD DUP1 DUP1 PUSH1 0x20 ADD DUP3 DUP2 SUB DUP3 MSTORE PUSH1 0x21 DUP2 MSTORE PUSH1 0x20 ADD DUP1 PUSH2 0xA46 PUSH1 0x21 SWAP2 CODECOPY PUSH1 0x40 ADD SWAP2 POP POP PUSH1 0x40 MLOAD DUP1 SWAP2 SUB SWAP1 REVERT JUMPDEST PUSH1 0x0 DUP3 PUSH1 0x0 ADD PUSH1 0x0 DUP4 PUSH20 0xFFFFFFFFFFFFFFFFFFFFFFFFFFFFFFFFFFFFFFFF AND PUSH20 0xFFFFFFFFFFFFFFFFFFFFFFFFFFFFFFFFFFFFFFFF AND DUP2 MSTORE PUSH1 0x20 ADD SWAP1 DUP2 MSTORE PUSH1 0x20 ADD PUSH1 0x0 KECCAK256 PUSH1 0x0 PUSH2 0x100 EXP DUP2 SLOAD DUP2 PUSH1 0xFF MUL NOT AND SWAP1 DUP4 ISZERO ISZERO MUL OR SWAP1 SSTORE POP POP POP JUMP INVALID MSTORE PUSH16 0x6C65733A206163636F756E7420646F65 PUSH20 0x206E6F74206861766520726F6C654D616E616765 PUSH19 0x526F6C653A2063616C6C657220646F6573206E PUSH16 0x74206861766520746865204D616E6167 PUSH6 0x7220726F6C65 MSTORE PUSH16 0x6C65733A206163636F756E7420697320 PUSH21 0x6865207A65726F2061646472657373A165627A7A72 ADDRESS PC KECCAK256 SWAP14 PUSH2 0xAF8A ADDRESS 0xaf SWAP16 0xe5 0x4a 0x28 SWAP9 0xfb 0xd 0xd7 0xbf EXP PUSH23 0xA3E517B0E21584B44690BD2AE4E0C10029526F6C65733A KECCAK256 PUSH2 0x6363 PUSH16 0x756E7420697320746865207A65726F20 PUSH2 0x6464 PUSH19 0x65737300000000000000000000000000000000 "
        },
        "methodIdentifiers": {
          "addItemToInventory(uint256,bytes32)": "58c273b2",
          "addManager(address)": "2d06177a",
          "checkInventory(uint256)": "e9f998ce",
          "destroy()": "83197ef0",
          "getUserId()": "2ebcb653",
          "isActive()": "22f3e2d4",
          "isManager(address)": "f3ae2415",
          "removeItemToInventory(uint256)": "3383f0f7",
          "removeManager(address)": "ac18de43"
        }
      }
    }
  }
}